{
  "_format": "hh-sol-artifact-1",
  "contractName": "Decentragram",
  "sourceName": "contracts/Decentragram.sol",
  "abi": [
    {
      "anonymous": false,
      "inputs": [
        {
          "indexed": false,
          "internalType": "uint256",
          "name": "id",
          "type": "uint256"
        },
        {
          "indexed": false,
          "internalType": "string",
          "name": "hash",
          "type": "string"
        },
        {
          "indexed": false,
          "internalType": "string",
          "name": "description",
          "type": "string"
        },
        {
          "indexed": false,
          "internalType": "uint256",
          "name": "tipAmount",
          "type": "uint256"
        },
        {
          "indexed": false,
          "internalType": "address payable",
          "name": "autor",
          "type": "address"
        }
      ],
      "name": "ImageCreate",
      "type": "event"
    },
    {
      "anonymous": false,
      "inputs": [
        {
          "indexed": false,
          "internalType": "uint256",
          "name": "id",
          "type": "uint256"
        },
        {
          "indexed": false,
          "internalType": "string",
          "name": "hash",
          "type": "string"
        },
        {
          "indexed": false,
          "internalType": "string",
          "name": "description",
          "type": "string"
        },
        {
          "indexed": false,
          "internalType": "uint256",
          "name": "tipAmount",
          "type": "uint256"
        },
        {
          "indexed": false,
          "internalType": "address payable",
          "name": "autor",
          "type": "address"
        }
      ],
      "name": "ImageTipped",
      "type": "event"
    },
    {
      "inputs": [],
      "name": "imageCounter",
      "outputs": [
        {
          "internalType": "uint256",
          "name": "",
          "type": "uint256"
        }
      ],
      "stateMutability": "view",
      "type": "function"
    },
    {
      "inputs": [
        {
          "internalType": "uint256",
          "name": "",
          "type": "uint256"
        }
      ],
      "name": "images",
      "outputs": [
        {
          "internalType": "uint256",
          "name": "id",
          "type": "uint256"
        },
        {
          "internalType": "string",
          "name": "hash",
          "type": "string"
        },
        {
          "internalType": "string",
          "name": "description",
          "type": "string"
        },
        {
          "internalType": "uint256",
          "name": "tipAmount",
          "type": "uint256"
        },
        {
          "internalType": "address payable",
          "name": "autor",
          "type": "address"
        }
      ],
      "stateMutability": "view",
      "type": "function"
    },
    {
      "inputs": [],
      "name": "name",
      "outputs": [
        {
          "internalType": "string",
          "name": "",
          "type": "string"
        }
      ],
      "stateMutability": "view",
      "type": "function"
    },
    {
      "inputs": [
        {
          "internalType": "uint256",
          "name": "_id",
          "type": "uint256"
        }
      ],
      "name": "tipImageOwner",
      "outputs": [],
      "stateMutability": "payable",
      "type": "function"
    },
    {
      "inputs": [
        {
          "internalType": "string",
          "name": "_hash",
          "type": "string"
        },
        {
          "internalType": "string",
          "name": "_description",
          "type": "string"
        }
      ],
      "name": "uploadImages",
      "outputs": [],
      "stateMutability": "nonpayable",
      "type": "function"
    }
  ],
  "bytecode": "0x60806040526040518060400160405280600c81526020017f446563656e7472616772616d000000000000000000000000000000000000000081525060009080519060200190620000519291906200006b565b5060006001553480156200006457600080fd5b5062000180565b82805462000079906200011b565b90600052602060002090601f0160209004810192826200009d5760008555620000e9565b82601f10620000b857805160ff1916838001178555620000e9565b82800160010185558215620000e9579182015b82811115620000e8578251825591602001919060010190620000cb565b5b509050620000f89190620000fc565b5090565b5b8082111562000117576000816000905550600101620000fd565b5090565b600060028204905060018216806200013457607f821691505b602082108114156200014b576200014a62000151565b5b50919050565b7f4e487b7100000000000000000000000000000000000000000000000000000000600052602260045260246000fd5b61105280620001906000396000f3fe60806040526004361061004a5760003560e01c806306fdde031461004f57806349e963951461007a57806384856482146100a35780638567ade8146100e4578063d91f1de814610100575b600080fd5b34801561005b57600080fd5b5061006461012b565b6040516100719190610b40565b60405180910390f35b34801561008657600080fd5b506100a1600480360381019061009c91906109b9565b6101b9565b005b3480156100af57600080fd5b506100ca60048036038101906100c59190610a25565b61038c565b6040516100db959493929190610c5e565b60405180910390f35b6100fe60048036038101906100f99190610a25565b6104f2565b005b34801561010c57600080fd5b50610115610893565b6040516101229190610be2565b60405180910390f35b6000805461013890610e17565b80601f016020809104026020016040519081016040528092919081815260200182805461016490610e17565b80156101b15780601f10610186576101008083540402835291602001916101b1565b820191906000526020600020905b81548152906001019060200180831161019457829003601f168201915b505050505081565b60008151116101fd576040517f08c379a00000000000000000000000000000000000000000000000000000000081526004016101f490610ba2565b60405180910390fd5b6000825111610241576040517f08c379a000000000000000000000000000000000000000000000000000000000815260040161023890610b62565b60405180910390fd5b6040518060a001604052806001548152602001838152602001828152602001600081526020013373ffffffffffffffffffffffffffffffffffffffff168152506002600060015481526020019081526020016000206000820151816000015560208201518160010190805190602001906102bc929190610899565b5060408201518160020190805190602001906102d9929190610899565b506060820151816003015560808201518160040160006101000a81548173ffffffffffffffffffffffffffffffffffffffff021916908373ffffffffffffffffffffffffffffffffffffffff1602179055509050507f4e9282870bd43ab9663c42138a9cbcae10c0cbfba13ecd489c39c4a44642865b6001548383600033604051610368959493929190610bfd565b60405180910390a16001600081548092919061038390610e7a565b91905055505050565b60026020528060005260406000206000915090508060000154908060010180546103b590610e17565b80601f01602080910402602001604051908101604052809291908181526020018280546103e190610e17565b801561042e5780601f106104035761010080835404028352916020019161042e565b820191906000526020600020905b81548152906001019060200180831161041157829003601f168201915b50505050509080600201805461044390610e17565b80601f016020809104026020016040519081016040528092919081815260200182805461046f90610e17565b80156104bc5780601f10610491576101008083540402835291602001916104bc565b820191906000526020600020905b81548152906001019060200180831161049f57829003601f168201915b5050505050908060030154908060040160009054906101000a900473ffffffffffffffffffffffffffffffffffffffff16905085565b6000811015610536576040517f08c379a000000000000000000000000000000000000000000000000000000000815260040161052d90610bc2565b60405180910390fd5b600154811061057a576040517f08c379a000000000000000000000000000000000000000000000000000000000815260040161057190610b82565b60405180910390fd5b6000600260008381526020019081526020016000206040518060a0016040529081600082015481526020016001820180546105b490610e17565b80601f01602080910402602001604051908101604052809291908181526020018280546105e090610e17565b801561062d5780601f106106025761010080835404028352916020019161062d565b820191906000526020600020905b81548152906001019060200180831161061057829003601f168201915b5050505050815260200160028201805461064690610e17565b80601f016020809104026020016040519081016040528092919081815260200182805461067290610e17565b80156106bf5780601f10610694576101008083540402835291602001916106bf565b820191906000526020600020905b8154815290600101906020018083116106a257829003601f168201915b50505050508152602001600382015481526020016004820160009054906101000a900473ffffffffffffffffffffffffffffffffffffffff1673ffffffffffffffffffffffffffffffffffffffff1673ffffffffffffffffffffffffffffffffffffffff1681525050905060008160800151905034826060018181516107459190610d31565b915081815250508160026000858152602001908152602001600020600082015181600001556020820151816001019080519060200190610786929190610899565b5060408201518160020190805190602001906107a3929190610899565b506060820151816003015560808201518160040160006101000a81548173ffffffffffffffffffffffffffffffffffffffff021916908373ffffffffffffffffffffffffffffffffffffffff1602179055509050508073ffffffffffffffffffffffffffffffffffffffff166108fc349081150290604051600060405180830381858888f1935050505015801561083e573d6000803e3d6000fd5b507f1be5317bca8d3f70dc1efe89958be71bff36cdca33fc00a6423e25eb2f1d492f826000015183602001518460400151856060015133604051610886959493929190610c5e565b60405180910390a1505050565b60015481565b8280546108a590610e17565b90600052602060002090601f0160209004810192826108c7576000855561090e565b82601f106108e057805160ff191683800117855561090e565b8280016001018555821561090e579182015b8281111561090d5782518255916020019190600101906108f2565b5b50905061091b919061091f565b5090565b5b80821115610938576000816000905550600101610920565b5090565b600061094f61094a84610ce4565b610cbf565b90508281526020810184848401111561096757600080fd5b610972848285610dd5565b509392505050565b600082601f83011261098b57600080fd5b813561099b84826020860161093c565b91505092915050565b6000813590506109b381611005565b92915050565b600080604083850312156109cc57600080fd5b600083013567ffffffffffffffff8111156109e657600080fd5b6109f28582860161097a565b925050602083013567ffffffffffffffff811115610a0f57600080fd5b610a1b8582860161097a565b9150509250929050565b600060208284031215610a3757600080fd5b6000610a45848285016109a4565b91505092915050565b610a5781610d87565b82525050565b610a6681610dc3565b82525050565b6000610a7782610d15565b610a818185610d20565b9350610a91818560208601610de4565b610a9a81610f50565b840191505092915050565b6000610ab2600f83610d20565b9150610abd82610f61565b602082019050919050565b6000610ad5601683610d20565b9150610ae082610f8a565b602082019050919050565b6000610af8601683610d20565b9150610b0382610fb3565b602082019050919050565b6000610b1b601f83610d20565b9150610b2682610fdc565b602082019050919050565b610b3a81610db9565b82525050565b60006020820190508181036000830152610b5a8184610a6c565b905092915050565b60006020820190508181036000830152610b7b81610aa5565b9050919050565b60006020820190508181036000830152610b9b81610ac8565b9050919050565b60006020820190508181036000830152610bbb81610aeb565b9050919050565b60006020820190508181036000830152610bdb81610b0e565b9050919050565b6000602082019050610bf76000830184610b31565b92915050565b600060a082019050610c126000830188610b31565b8181036020830152610c248187610a6c565b90508181036040830152610c388186610a6c565b9050610c476060830185610a5d565b610c546080830184610a4e565b9695505050505050565b600060a082019050610c736000830188610b31565b8181036020830152610c858187610a6c565b90508181036040830152610c998186610a6c565b9050610ca86060830185610b31565b610cb56080830184610a4e565b9695505050505050565b6000610cc9610cda565b9050610cd58282610e49565b919050565b6000604051905090565b600067ffffffffffffffff821115610cff57610cfe610f21565b5b610d0882610f50565b9050602081019050919050565b600081519050919050565b600082825260208201905092915050565b6000610d3c82610db9565b9150610d4783610db9565b9250827fffffffffffffffffffffffffffffffffffffffffffffffffffffffffffffffff03821115610d7c57610d7b610ec3565b5b828201905092915050565b6000610d9282610d99565b9050919050565b600073ffffffffffffffffffffffffffffffffffffffff82169050919050565b6000819050919050565b6000610dce82610db9565b9050919050565b82818337600083830152505050565b60005b83811015610e02578082015181840152602081019050610de7565b83811115610e11576000848401525b50505050565b60006002820490506001821680610e2f57607f821691505b60208210811415610e4357610e42610ef2565b5b50919050565b610e5282610f50565b810181811067ffffffffffffffff82111715610e7157610e70610f21565b5b80604052505050565b6000610e8582610db9565b91507fffffffffffffffffffffffffffffffffffffffffffffffffffffffffffffffff821415610eb857610eb7610ec3565b5b600182019050919050565b7f4e487b7100000000000000000000000000000000000000000000000000000000600052601160045260246000fd5b7f4e487b7100000000000000000000000000000000000000000000000000000000600052602260045260246000fd5b7f4e487b7100000000000000000000000000000000000000000000000000000000600052604160045260246000fd5b6000601f19601f8301169050919050565b7f446566696e652061202768617368270000000000000000000000000000000000600082015250565b7f496d616765204944206e6f7420617661696c61626c6500000000000000000000600082015250565b7f446566696e65206120276465736372697074696f6e2700000000000000000000600082015250565b7f496d6167652049442063616e6e6f74206265206c6f776572207468616e203000600082015250565b61100e81610db9565b811461101957600080fd5b5056fea2646970667358221220aca3ca095fb9eb7b4e8d244c355fe86330bc5f17978fecb3586f4ec7a6595e5664736f6c63430008040033",
  "linkReferences": {},
  "deployedLinkReferences": {}
}